:040000000DEF00F010
:0400080012EF82F081
:06001800FF00A7EF85F0D8
:10FE1A0000E41101000000E00501000000000000FC
:10FE2A0000000000000012100100000000000000A5
:10FE3A0000000000000000000000009A0B01000012
:10FE4A00000000000000007812010000003E1001CE
:10FE5A003C12012213010000006A1201000000E4B2
:10FE6A000B010000000A1301000000A212010000A9
:10FE7A00006A10012813014C1201000000941201BB
:10FE8A0000000002C000FF0002C000FF00024000A4
:10FE9A00000044697361626C65640000382062691D
:10FEAA007473000000003136206269747300000028
:10FEBA005354415455530909203D20307825303296
:10FECA00782052585F44523D25782054585F445355
:10FEDA003D2578204D41585F52543D25782052588F
:10FEEA005F505F4E4F3D25782054585F46554C4C25
:10FEFA003D25780D0A003D3D3D3D3D3D3D3D3D3DA5
:10FF0A003D3D3D3D3D3D204E524620436F6E666964
:10FF1A006775726174696F6E203D3D3D3D3D3D3DA3
:10FF2A003D3D3D3D3D3D3D3D3D0A0052657472619A
:10FF3A006E736D697409203D2025642075730A006B
:10FF4A00435243204C656E67746809203D2025732F
:10FF5A000A0044617461205261746509203D2025BC
:10FF6A00730A00504120506F77657209203D2025A1
:10FF7A00730A0044594E50442F4645415455524540
:10FF8A000052585F414444525F50302D310052585C
:10FF9A005F414444525F50322D350052585F5057EA
:10FFAA005F50302D3600454E5F525841444452004E
:10FFBA0054585F41444452090052465F53455455D0
:10FFCA005000434F4E4649470900203078253032C9
:10FFDA007800454E5F4141090052465F4348090097
:10FFEA00257309203D0033524543560020307800DE
:05FFFA004C454400002D
:020000040001F9
:10000000B196C6EF80F03850D8A409EF80F00BEF1E
:1000100080F013EF80F005019F6B31504FEC85F0BD
:10002000315020EC85F03650D8A419EF80F01BEF4A
:1000300080F021EF80F09CC507F59DC508F525EF00
:1000400080F0A3C507F5A4C508F508AE2AEF80F037
:100050002CEF80F02FEF80F0C18230EF80F0C19262
:100060003350D8A436EF80F038EF80F03EEF80F0C8
:100070009AC509F59BC50AF542EF80F0A1C509F5BF
:10008000A2C50AF50AAE47EF80F049EF80F04CEFC9
:1000900080F0C18A4DEF80F0C19A010E376ED9EF22
:1000A00080F005019F51D8A458EF80F05AEF80F0FE
:1000B00060EF80F0C184C18C010E9F6FD9EF80F09A
:1000C000C194C19C9F6B3650D8B469EF80F06BEF40
:1000D00080F070EF80F0D890A337A43773EF80F0F2
:1000E000D8909C379D373350D8B479EF80F07BEFB0
:1000F00080F080EF80F0D890A137A23783EF80F0B6
:10010000D8909A379B37382A0F0E38648AEF80F0E0
:100110008CEF80F091EF80F0386A020E376ED9EFE5
:1001200080F0376AD9EF80F0C180C188030E376E46
:10013000D9EF80F0C190C1983650D8B4A2EF80F0CA
:10014000A4EF80F0BBEF80F00501A369A469A16969
:10015000A269010E3124016E026A000E0222000E15
:10016000046E050E036EB3EC83F00150316E366AF7
:10017000336A91EF80F0010E366E010E336E376AEE
:100180008EEC89F08BEC89F0D9EF80F03750000AC3
:10019000D8B403EF80F0010AD8B451EF80F0030A1D
:1001A000D8B494EF80F0010AD8B49AEF80F0D9EF78
:1001B00080F01200200E0E6E060E0F6EDDEC87F042
:1001C000200E186E060E196E700E1A6E200E1B6E23
:1001D000ADEC84F0200E176E060E186EF00E196E40
:1001E000FF0E1A6E60EC84F017501810D8A4FBEFC5
:1001F00080F0FDEF80F0EAEF80F0200E176E060E23
:10020000186EF00E196EFF0E1A6E0AEC84F017507D
:100210001810D8A40EEF81F010EF81F0FDEF80F000
:10022000200E1B6E060E1C6E9AEC88F0700E0F6E80
:10023000070EE6EC88F085EC89F026EC89F088EC76
:1002400089F01EEC89F02E0E0D6E130E0E6E010E4F
:100250000F6E5FEC89F0020E0D6E130E0E6E010E26
:100260000F6E2EEC89F0D68E3C50D8B43AEF81F068
:100270003CEF81F078EF81F0200E186E060E196EBB
:10028000BBEC88F00009D8B448EF81F04AEF81F068
:1002900077EF81F021EE00F21F0EDE6AE806FDE244
:1002A000200E136E060E146E000E156E060E166EE0
:1002B00094EC87F0000E0D6E060E0E6EFA0E0F6EA9
:1002C000FF0E106E000E126E080E116E87EC82F09B
:1002D0000D500E10D8A46FEF81F071EF81F077EF21
:1002E00081F0080E0D6E060E0E6E97EC81F03C6AE2
:1002F0000501A051D8B47FEF81F081EF81F08EEF3E
:1003000081F0200E0F6E060E106E7BEC89F0700EE1
:100310000F6E070EE6EC88F00501A06B000E0E6E66
:10032000010E0D6EADEC87F034EF81F012001B6A08
:100330001B50020DF3C40FF5F4C410F50F500D243B
:10034000116E10500E20126E010E1124D96E000E87
:100350001220DA6EDF50136E1350156E146A1B50A4
:10036000020DF3C416F5F4C417F516500D24D96E1A
:1003700017500E20DA6EDF50186E18501412000E4F
:1003800015121B50020D8A0EF324D96E050EF420AF
:10039000DA6E14C5DEF415C5DDF41B50020DF3C48E
:1003A0000FF5F4C410F50F500D24116E10500E20EF
:1003B000126E0B0E1124D96E000E1220DA6EDF5071
:1003C000136E1350156E146A1B50020DF3C416F50C
:1003D000F4C417F516500D24186E17500E20196E20
:1003E0000A0E1824D96E000E1920DA6EDF501A6E2C
:1003F0001A501412000E15121B50020D800EF32419
:10040000D96E050EF420DA6E14C5DEF415C5DDF4E0
:100410001B2A040E1B640FEF82F011EF82F098EF9D
:1004200081F01200FAC40BF5FBC40CF59EAE1BEF75
:1004300082F01DEF82F028EF82F0AEAE22EF82F064
:1004400024EF82F028EF82F009EC89F082EF82F04D
:10045000A1AE2DEF82F02FEF82F03AEF82F0B1AE35
:1004600034EF82F036EF82F03AEF82F0BBEC86F0A8
:1004700082EF82F0A3A83FEF82F041EF82F04CEFD1
:1004800082F0B3A846EF82F048EF82F04CEF82F0A2
:100490007BEC86F082EF82F0A9A651EF82F053EF59
:1004A00082F05EEF82F0B9A658EF82F05AEF82F048
:1004B0005EEF82F061EC87F082EF82F0A1A663EF3D
:1004C00082F065EF82F070EF82F0B1A66AEF82F001
:1004D0006CEF82F070EF82F0ABEC88F082EF82F08C
:1004E000A1A875EF82F077EF82F082EF82F0B1A8D9
:1004F0007CEF82F07EEF82F082EF82F09BEC86F060
:1005000082EF82F00CC5FBF40BC5FAF41100110662
:10051000D8A01206112806E11228D8A492EF82F082
:1005200094EF82F0A1EF82F0000E0E6E000E0D6EC1
:10053000EFEF82F00D4A0E2A0F4A102A1106D8A0BA
:1005400012060DC5D9F40EC5DAF4DF50D8B4ABEFFE
:1005500082F0ADEF82F0DCEF82F00FC5F6F410C54B
:10056000F7F4000EF86E0800F5500009D8B4BBEFA0
:1005700082F0BDEF82F0DCEF82F011501210D8B49F
:10058000C4EF82F0C6EF82F0DCEF82F00DC5D9F443
:100590000EC5DAF4DF50136E0FC5F6F410C5F7F48C
:1005A000000EF86E0800F5501318D8B4DAEF82F098
:1005B000DCEF82F09AEF82F00DC5D9F40EC5DAF4C3
:1005C000DF50136E0FC5F6F410C5F7F4000EF86E89
:1005D0000800F550135C0D6E0E6AD8A00E061200CE
:1005E0000D6E000184BFF7EF82F0F9EF82F054EF57
:1005F00083F00D50050D8D0EF324F66EFE0EF420E3
:10060000F76EF86A000EF8220800F5C484F00D5069
:10061000050D010EF326000EF4228D0EF324F66E66
:10062000FE0EF420F76EF86A000EF8220800F5C4FA
:1006300085F00D50050D020EF326000EF4228D0EEE
:10064000F324F66EFE0EF420F76EF86A000EF82220
:100650000800F550FC0B866F0D50050D030EF326B8
:10066000000EF4228D0EF324F66EFE0EF420F76ECB
:10067000F86A000EF8220800F5C489F00D50050D47
:10068000040EF326000EF4228D0EF324F66EFE0EF9
:10069000F420F76EF86A000EF8220800F5C48CF01A
:1006A000C896848F54EF83F01200BE6ABF6AC06A96
:1006B000C16AC26AC36A0401026B0A6B126B1A6BCD
:1006C000226B2A6BE00EC66EF70EC76E8F0EC86ED9
:1006D000880EC96E0F0ECA6E0F0ECB6EE00E006F45
:1006E000F70E086F810E106F880E186F070E206FBF
:1006F0000F0E286F016B096B116B196B216B296B46
:1007000003690B6913691B69070E236F2B69046961
:100710000C6914691C690F0E246F2C690201896B26
:10072000886B876B866B120E6B6F320E156F130E14
:100730006A6F310E146F0401056B066B076B0D6B4E
:100740000E6B0F6B156B020E166F176B256B266BFE
:10075000276B3E0E0D6E130E0E6E010E0F6E5FECCC
:1007600089F09E8E1200066A02BEBBEF83F0B9EFDD
:1007700083F0C1EF83F0016C021ED8B0022A010E93
:10078000066E04BEC8EF83F0C6EF83F0CCEF83F0B3
:10079000036C041ED8B0042A03500410D8B4D3EF5D
:1007A00083F0D5EF83F0F9EF83F0010E056EDDEFF6
:1007B00083F0D89003360436052A04AEE2EF83F0C6
:1007C000E4EF83F0D9EF83F00350015C045002584A
:1007D000D8A0EDEF83F0EFEF83F0F3EF83F0035059
:1007E000015E0450025AD89004320332052EE4EF21
:1007F00083F00650D8B4FFEF83F001EF84F005EFEB
:1008000084F0016C021ED8B0022A01C501F502C5B0
:1008100002F51200000E246E000E236E19C513F5AA
:100820001AC514F5050E156E0A0E7BEC87F019C576
:1008300013F51AC514F5050E156E100E7BEC87F036
:100840001E0E136E050E146E050E156E0A0EC5EC07
:1008500087F0000E266E000E256E1E0E2524D96E22
:10086000050E2620DA6E255019241C6E26501A20FB
:100870001D6E1CC5F6F41DC5F7F4000EF86EDE50B3
:100880000900F518D8B447EF84F049EF84F04BEF36
:1008900084F023682468254A262A26BE59EF84F06E
:1008A000265009E1050E255CD8A059EF84F05BEFD6
:1008B00084F02DEF84F023C517F524C518F5120038
:1008C000000E246E000E236E19C513F51AC514F51B
:1008D000050E156E0B0E7BEC87F01E0E136E050ECB
:1008E000146E050E156E0B0EC5EC87F0000E266E0D
:1008F000000E256E1E0E2524D96E050E2620DA6EFA
:10090000255019241C6E26501A201D6E1CC5F6F4A5
:100910001DC5F7F4000EF86EDE500900F518D8B4C6
:1009200094EF84F096EF84F098EF84F023682468C5
:10093000254A262A26BEA6EF84F0265009E1050E98
:10094000255CD8A0A6EF84F0A8EF84F07AEF84F0BD
:1009500023C517F524C518F5120020EE01F0185034
:10096000D9261950DA221AC5DFF420EE02F0185009
:10097000D9261950DA221BC5DFF4FEEC88F01AC51F
:100980000FF5050EE6EC88F020EE02F01850D9269F
:100990001950DA22DF500F6E110EE6EC88F020EECF
:1009A00002F01850D9261950DA22DF500F6E120EBD
:1009B000E6EC88F0FEEC88F018C511F519C512F5C3
:1009C00088EC88F018C50FF519C510F57BEC89F097
:1009D0001200020E1964EFEF84F0F1EF84F0F3EFF0
:1009E00084F01FEF85F01A0E136E050E146E010EC3
:1009F000156E060EC5EC87F0020E1918D8A403EF89
:100A000085F005EF85F012EF85F01A5020091A6E77
:100A10001A50F70B1A6E1AC50FF5060EE6EC88F0A1
:100A20001FEF85F01A50D70B1A6E1938E842F80BF1
:100A30001A101A6E1AC50FF5060EE6EC88F01200B1
:100A4000016EBF96C398C39AC39CC39E37EF85F0CF
:100A5000BF864EEF85F0C3884EEF85F0C38A4EEF18
:100A600085F0C38C4EEF85F0C38E4EEF85F00150BC
:100A7000000AD8B428EF85F0010AD8B42BEF85F02E
:100A8000030AD8B42EEF85F0010AD8B431EF85F00F
:100A9000070AD8B434EF85F04EEF85F01200016EEE
:100AA000BE98BE96BE94BE92BE9066EF85F0BE889C
:100AB0007DEF85F0BE867DEF85F0BE847DEF85F00D
:100AC000BE827DEF85F0BE807DEF85F00150000A8B
:100AD000D8B457EF85F0010AD8B45AEF85F0030A6D
:100AE000D8B45DEF85F0010AD8B460EF85F0070A4D
:100AF000D8B463EF85F07DEF85F0120088EF85F0C4
:100B0000AA0EE82EFED700D0200E0D5E000E0E5A63
:100B10000E5007E1200E0D5CD8B091EF85F093EFF9
:100B200085F080EF85F099EF85F0050EE82EFED771
:100B300000000D06D8A00E060D2806E10E28D8A448
:100B4000A4EF85F0A6EF85F095EF85F01200B40EC6
:100B5000F66E0D0EF76E010EF86E01EEA1F110EEBD
:100B60003CF00900F5C4EEF4E550E150FAE101EE85
:100B700060F1410EEE6AE806FDE101EE29F1140E86
:100B8000EE6AE806FDE10401080E5D6F000E5E6F7F
:100B9000000E5F6F000113EF87F003012A912B6BAA
:100BA0002C6B030E2D6F296B0F0E286F2951106EC1
:100BB0002851296E10C52AF5340E0D6E130E0E6ED7
:100BC000010E0F6E3CEC89F0000E0D6E000E0E6EE5
:100BD000000E0F6E43EC89F0B398A388040E030156
:100BE0002A6F120003011E911F6B206B030E216FF1
:100BF0001D69F00E1C6F1D51106E1C512B6E10C51F
:100C00002CF5360E0D6E130E0E6E010E0F6E51EC9E
:100C100089F0000E0D6E000E0E6E000E0F6E58EC79
:100C200089F0B198A188240E03011E6F1200C09CA8
:100C3000126A2EEF86F00FC5F6F410C5F7F4000E19
:100C4000F86E0800F55009EC88F00F4A102A000EE3
:100C50000E6E0A0E0D6E7EEC85F0122A1150125C9B
:100C6000D8A035EF86F037EF86F01BEF86F0C08C0A
:100C70001200B19691EC89F03250D8EC88F001C5A1
:100C80009CF502C59DF53250CAEC88F001C59AF575
:100C900002C59BF5010E3224016E026A000E02228B
:100CA000000E046E050E036EB3EC83F00150326E3D
:100CB00094EC89F01200D69AAF90D680000E0D6E9B
:100CC000000E0E6E000E0F6E74EC89F0B490D6829A
:100CD000000E0D6E000E0E6E000E0F6E6DEC89F0A4
:100CE000B890D684000E0D6E000E0E6E000E0F6EC4
:100CF00066EC89F01200B39829C501F52AC502F502
:100D00004BEC88F00501E051E111E211D8B48BEF12
:100D100086F08DEF86F09AEF86F002D89AEF86F093
:100D20000500FA6EE051FD6EE151FE6EE251FF6E7C
:100D3000FA5012001200B1982BC501F52CC502F52E
:100D400060EC88F00501E951EA11EB11D8B4ABEF82
:100D500086F0ADEF86F0BAEF86F002D8BAEF86F0F3
:100D60000500FA6EE951FD6EEA51FE6EEB51FF6E21
:100D7000FA50120012002E500301196F2DC518F3FE
:100D80000501EF51F011F111D8B4C9EF86F0CBEFA6
:100D900086F0D8EF86F002D8D8EF86F00500FA6E1C
:100DA000EF51FD6EF051FE6EF151FF6EFA501200E0
:100DB000B19E1200FFFFFFFF50415F4D494E000002
:100DC00050415F4C4F57000050415F484947480031
:100DD00050415F4D41580000314D6270730000007A
:100DE000324D6270730000003235304B6270730018
:100DF0000501FB51FC11FD11D8B401EF87F003EFA1
:100E000087F010EF87F002D810EF87F00500FA6E38
:100E1000FB51FD6EFC51FE6EFD51FF6EFA5012004B
:100E200004011793120075EC88F0000E0D6E000E91
:100E30000E6E010E0F6E4AEC89F0720E0D6E0C0EE6
:100E40000E6E010E0F6E35EC89F0000E276E000E4F
:100E5000286EDAEC80F00DEF00F0C09C126A3CEFD7
:100E600087F0FF0E09EC88F00FC5D9F410C5DAF44D
:100E7000DF6E0F4A102A122A1150125CD8A043EFDD
:100E800087F045EF87F031EF87F0C08C1200850EB8
:100E90000301196FEE0E186F7A0E1B6F19510D6E4C
:100EA00018512D6E0DC52EF53C0E0501EF6F130E7A
:100EB000F06F010EF16FB19EA18E900E03011A6FBB
:100EC0001200B9960501E351E411E511D8B46BEFB6
:100ED00087F06DEF87F07AEF87F002D87AEF87F02E
:100EE0000500FA6EE351FD6EE451FE6EE551FF6EB2
:100EF000FA5012001200166E1550D8B482EF87F027
:100F000084EF87F093EF87F0C09C16501F0B2009E9
:100F100009EC88F013C50FF514C510F515C511F5CA
:100F200017EC86F0C08C1200C09C610E09EC88F0B2
:100F300015C50FF516C510F520EE02F01350D92691
:100F40001450DA22DF50116E2DEC87F0C08C400E69
:100F50000F6E070EE6EC88F01200B7EF87F0150E63
:100F60000F6EC60EE82EFED70F2EFCD700D00D0652
:100F7000D8A00E060D2806E10E28D8A4C2EF87F0EF
:100F8000C4EF87F0AFEF87F01200166E1550D8B49B
:100F9000CCEF87F0CEEF87F0DCEF87F0C09C1650E7
:100FA0001F0B09EC88F013C50FF514C510F515C516
:100FB00011F52DEC87F0C08C1200000EF0EC82F0E1
:100FC00020EE01F00E50D9260F50DA22700EDF6E9F
:100FD00020EE02F00E50D9260F50DA22200EDF6EDE
:100FE000C89CC89A12001A0E136E050E146E010EDC
:100FF000156E040EC5EC87F01A500F0B1A6E1938D7
:10100000F00B1A101A6E1AC50FF5040EE6EC88F0F4
:1010100012000D6E0001878586510309866F836B70
:10102000010E826F0DC581F0B1A019EF88F01BEFA2
:1010300088F014EF88F080C00EF50E501200030EF9
:101040000301326F316B336B180E2F6F2E6B3A0E1C
:101050000D6E130E0E6E010E0F6E35EC89F0B99603
:10106000A986F30E0301306F1200030E0301266FF1
:10107000256B276B3F0E236F226B380E0D6E130E00
:101080000E6E010E0F6E4AEC89F0B196A186800EAD
:101090000301246F120003012AA551EF88F053EFDA
:1010A00088F05BEF88F02A910250296F01C528F380
:1010B0002A815FEF88F00250296F01C528F31200E2
:1010C00003011EA566EF88F068EF88F070EF88F0E6
:1010D0001E9102501D6F01C51CF31E8174EF88F034
:1010E00002501D6F01C51CF3120014EC89F055EC81
:1010F00083F047EC87F0F2EC88F0F2EC85F0CDEC71
:1011000085F035EC88F01FEC88F05BEC86F012007F
:1011100011C5D9F412C5DAF4DF6AC09A2B0E0F6E2E
:10112000000EE6EC88F0C08A300E0F6E070EE6EC7B
:1011300088F012001BC517F51CC518F5000E196EB6
:10114000E9EC84F01BC517F51CC518F5640E196E83
:10115000F3EC87F01200B19602D8BAEF88F00500E0
:10116000FA6E0501EC51FD6EED51FE6EEE51FF6E13
:10117000FA5012001200FEEC88F01A6E1AACC3EF9F
:1011800088F0C5EF88F0C8EF88F0010EC9EF88F04D
:10119000000E1200036E0350020D800EF324D96E70
:1011A000050EF420DA6EDEC401F5DDC402F512008E
:1011B000036E0350020D8A0EF324D96E050EF4203F
:1011C000DA6EDEC401F5DDC402F51200106EC09CBB
:1011D00010501F0B200909EC88F00F5009EC88F023
:1011E000C08C1200A194A192A1900001846B040E06
:1011F000856F866B896B8C6B87851200170E136E5B
:10120000050E146E010E156E070EC5EC87F0175013
:101210001200040117A30FEF89F011EF89F013EF0B
:1012200089F0F8EC86F01200600E0001AD6FAF6B34
:10123000B36B080EB16FB06BAC6B1200D7AE23EF7F
:1012400089F08BEF89F00301308F1200D7AE2BEFBE
:1012500089F08EEF89F00301249F12000DC5EFF590
:101260000EC5F0F50FC5F1F512000DC5E3F50EC57D
:10127000E4F50FC5E5F512000DC5E0F50EC5E1F585
:101280000FC5E2F512000DC5DDF50EC5DEF50FC583
:10129000DFF512000DC5ECF50EC5EDF50FC5EEF549
:1012A00012000DC5E9F50EC5EAF50FC5EBF5120004
:1012B0000DC5E6F50EC5E7F50FC5E8F512000DC53D
:1012C000FBF50EC5FCF50FC5FDF512000DC5F2F5D9
:1012D0000EC5F3F50FC5F4F512000DC5F5F50EC5F5
:1012E000F6F50FC5F7F512000DC5F8F50EC5F9F5C1
:1012F0000FC5FAF51200C09CE20E09EC88F0C08C14
:101300001200010E0501A06F120003011E911200D0
:1013100003011A8F12000301308F12000301249F72
:1013200012000301309F12000301248F1200010EEE
:101330003C6E120012001200120012001200120085
:020000040030CA
:080000008FFFF7FF9FFFFFFFD8
:01000900FFF7
:00000001FF
