:040000000DEF00F010
:04000800F4EF81F0A0
:06001800FF0089EF85F0F6
:10FE1A0000A81101000000A4050100000000000074
:10FE2A00000000000000D60F0100000000000000E2
:10FE3A0000000000000000000000005E0B0100004E
:10FE4A00000000000000002E120100000002100154
:10FE5A00001201D01201000000201201000000A8C7
:10FE6A000B01000000B81201000000581201000046
:10FE7A00002E1001D612011012010000004A1201D0
:10FE8A0000000002C000FF0002C000FF00024000A4
:10FE9A00000044697361626C65640000382062691D
:10FEAA007473000000003136206269747300000028
:10FEBA005354415455530909203D20307825303296
:10FECA00782052585F44523D25782054585F445355
:10FEDA003D2578204D41585F52543D25782052588F
:10FEEA005F505F4E4F3D25782054585F46554C4C25
:10FEFA003D25780D0A003D3D3D3D3D3D3D3D3D3DA5
:10FF0A003D3D3D3D3D3D204E524620436F6E666964
:10FF1A006775726174696F6E203D3D3D3D3D3D3DA3
:10FF2A003D3D3D3D3D3D3D3D3D0A0052657472619A
:10FF3A006E736D697409203D2025642075730A006B
:10FF4A00435243204C656E67746809203D2025732F
:10FF5A000A0044617461205261746509203D2025BC
:10FF6A00730A00504120506F77657209203D2025A1
:10FF7A00730A0044594E50442F4645415455524540
:10FF8A000052585F414444525F50302D310052585C
:10FF9A005F414444525F50322D350052585F5057EA
:10FFAA005F50302D3600454E5F525841444452004E
:10FFBA0054585F41444452090052465F53455455D0
:10FFCA005000434F4E4649470900203078253032C9
:10FFDA007800454E5F4141090052465F4348090097
:10FFEA00257309203D0033524543560020307800DE
:05FFFA004C454400002D
:020000040001F9
:10000000B196C6EF80F03850D8A409EF80F00BEF1E
:1000100080F013EF80F005019F6B315031EC85F0DB
:10002000315002EC85F03650D8A419EF80F01BEF68
:1000300080F021EF80F09CC507F59DC508F525EF00
:1000400080F0A2C507F5A3C508F508AE2AEF80F039
:100050002CEF80F02FEF80F0C18230EF80F0C19262
:100060003350D8A436EF80F038EF80F03EEF80F0C8
:100070009AC509F59BC50AF542EF80F0A0C509F5C0
:10008000A1C50AF50AAE47EF80F049EF80F04CEFCA
:1000900080F0C18A4DEF80F0C19A010E376ED9EF22
:1000A00080F005019F51D8A458EF80F05AEF80F0FE
:1000B00060EF80F0C184C18C010E9F6FD9EF80F09A
:1000C000C194C19C9F6B3650D8B469EF80F06BEF40
:1000D00080F070EF80F0D890A237A33773EF80F0F4
:1000E000D8909C379D373350D8B479EF80F07BEFB0
:1000F00080F080EF80F0D890A037A13783EF80F0B8
:10010000D8909A379B37382A0F0E38648AEF80F0E0
:100110008CEF80F091EF80F0386A020E376ED9EFE5
:1001200080F0376AD9EF80F0C180C188030E376E46
:10013000D9EF80F0C190C1983650D8B4A2EF80F0CA
:10014000A4EF80F0BBEF80F00501A269A369A0696C
:10015000A169010E3124016E026A000E0222000E16
:10016000046E050E036E95EC83F00150316E366A15
:10017000336A91EF80F0010E366E010E336E376AEE
:1001800065EC89F062EC89F0D9EF80F03750000A15
:10019000D8B403EF80F0010AD8B451EF80F0030A1D
:1001A000D8B494EF80F0010AD8B49AEF80F0D9EF78
:1001B00080F01200200E0E6E060E0F6EBFEC87F060
:1001C000200E186E060E196E700E1A6E200E1B6E23
:1001D0008FEC84F0200E176E060E186EF00E196E5E
:1001E000FF0E1A6E42EC84F017501810D8A4FBEFE3
:1001F00080F0FDEF80F0EAEF80F0200E176E060E23
:10020000186EF00E196EFF0E1A6EECEC83F017509C
:100210001810D8A40EEF81F010EF81F0FDEF80F000
:10022000200E1B6E060E1C6E7CEC88F0700E0F6E9E
:10023000070EC8EC88F05CEC89F008EC89F05FEC04
:1002400089F000EC89F0DC0E0D6E120E0E6E010EC0
:100250000F6E3AEC89F0D68E3C50D8B432EF81F074
:1002600034EF81F070EF81F0200E186E060E196EDB
:100270009DEC88F00009D8B440EF81F042EF81F0A6
:100280006FEF81F021EE00F21F0EDE6AE806FDE25C
:10029000200E136E060E146E000E156E060E166EF0
:1002A00076EC87F0000E0D6E060E0E6EFA0E0F6ED7
:1002B000FF0E106E000E126E080E116E69EC82F0C9
:1002C0000D500E10D8A467EF81F069EF81F06FEF49
:1002D00081F0080E0D6E060E0E6E79EC81F03C6A10
:1002E000000E0E6E0A0E0D6E8FEC87F02CEF81F073
:1002F00012001B6A1B50020DF3C40FF5F4C410F575
:100300000F500D24116E10500E20126E010E11248C
:10031000D96E000E1220DA6EDF50136E1350156E78
:10032000146A1B50020DF3C416F5F4C417F51650E9
:100330000D24D96E17500E20DA6EDF50186E18504B
:100340001412000E15121B50020D8A0EF324D96EE2
:10035000050EF420DA6E14C5DEF415C5DDF41B506D
:10036000020DF3C40FF5F4C410F50F500D24116EF7
:1003700010500E20126E0B0E1124D96E000E12209A
:10038000DA6EDF50136E1350156E146A1B50020D97
:10039000F3C416F5F4C417F516500D24186E175053
:1003A0000E20196E0A0E1824D96E000E1920DA6E6E
:1003B000DF501A6E1A501412000E15121B50020D47
:1003C000800EF324D96E050EF420DA6E14C5DEF427
:1003D00015C5DDF41B2A040E1B64F1EF81F0F3EF69
:1003E00081F07AEF81F01200FAC40BF5FBC40CF532
:1003F0009EAEFDEF81F0FFEF81F00AEF82F0AEAE2E
:1004000004EF82F006EF82F00AEF82F0EBEC88F066
:1004100064EF82F0A1AE0FEF82F011EF82F01CEFDB
:1004200082F0B1AE16EF82F018EF82F01CEF82F08E
:100430009DEC86F064EF82F0A3A821EF82F023EF19
:1004400082F02EEF82F0B3A828EF82F02AEF82F03C
:100450002EEF82F05DEC86F064EF82F0A9A633EF18
:1004600082F035EF82F040EF82F0B9A63AEF82F0E9
:100470003CEF82F040EF82F043EC87F064EF82F0D3
:10048000A1A645EF82F047EF82F052EF82F0B1A6CD
:100490004CEF82F04EEF82F052EF82F08DEC88F05C
:1004A00064EF82F0A1A857EF82F059EF82F064EF79
:1004B00082F0B1A85EEF82F060EF82F064EF82F02C
:1004C0007DEC86F064EF82F00CC5FBF40BC5FAF40A
:1004D00011001106D8A01206112806E11228D8A48E
:1004E00074EF82F076EF82F083EF82F0000E0E6EF2
:1004F000000E0D6ED1EF82F00D4A0E2A0F4A102A1F
:100500001106D8A012060DC5D9F40EC5DAF4DF50D5
:10051000D8B48DEF82F08FEF82F0BEEF82F00FC57E
:10052000F6F410C5F7F4000EF86E0800F550000957
:10053000D8B49DEF82F09FEF82F0BEEF82F01150B1
:100540001210D8B4A6EF82F0A8EF82F0BEEF82F0CE
:100550000DC5D9F40EC5DAF4DF50136E0FC5F6F4ED
:1005600010C5F7F4000EF86E0800F5501318D8B453
:10057000BCEF82F0BEEF82F07CEF82F00DC5D9F4C3
:100580000EC5DAF4DF50136E0FC5F6F410C5F7F49C
:10059000000EF86E0800F550135C0D6E0E6AD8A0C0
:1005A0000E0612000D6E000184BFD9EF82F0DBEF62
:1005B00082F036EF83F00D50050D8D0EF324F66EAC
:1005C000FE0EF420F76EF86A000EF8220800F5C45B
:1005D00084F00D50050D010EF326000EF4228D0E51
:1005E000F324F66EFE0EF420F76EF86A000EF82281
:1005F0000800F5C485F00D50050D020EF326000E1F
:10060000F4228D0EF324F66EFE0EF420F76EF86AD7
:10061000000EF8220800F550FC0B866F0D50050DFA
:10062000030EF326000EF4228D0EF324F66EFE0E5A
:10063000F420F76EF86A000EF8220800F5C489F07D
:100640000D50050D040EF326000EF4228D0EF3243A
:10065000F66EFE0EF420F76EF86A000EF82208001F
:10066000F5C48CF0C896848F36EF83F01200BE6A12
:10067000BF6AC06AC16AC26AC36A0401026B0A6BBC
:10068000126B1A6B226B2A6BE00EC66EF70EC76EEA
:100690008F0EC86E880EC96E0F0ECA6E0F0ECB6E0F
:1006A000E00E006FF70E086F810E106F880E186F46
:1006B000070E206F0F0E286F016B096B116B196B02
:1006C000216B296B03690B6913691B69070E236F83
:1006D0002B6904690C6914691C690F0E246F2C695D
:1006E0000201896B886B876B866B120E6B6F320E03
:1006F000156F130E6A6F310E146F0401056B066BD4
:10070000076B0D6B0E6B0F6B156B020E166F176B75
:10071000256B266B276BEC0E0D6E120E0E6E010E06
:100720000F6E3AEC89F09E8E1200066A02BE9DEFB3
:1007300083F09BEF83F0A3EF83F0016C021ED8B02F
:10074000022A010E066E04BEAAEF83F0A8EF83F022
:10075000AEEF83F0036C041ED8B0042A03500410DB
:10076000D8B4B5EF83F0B7EF83F0DBEF83F0010E81
:10077000056EBFEF83F0D89003360436052A04AE29
:10078000C4EF83F0C6EF83F0BBEF83F00350015C4E
:1007900004500258D8A0CFEF83F0D1EF83F0D5EF0B
:1007A00083F00350015E0450025AD89004320332A1
:1007B000052EC6EF83F00650D8B4E1EF83F0E3EFE7
:1007C00083F0E7EF83F0016C021ED8B0022A01C566
:1007D00001F502C502F51200000E246E000E236E14
:1007E00019C513F51AC514F5050E156E0A0E5DEC44
:1007F00087F019C513F51AC514F5050E156E100E00
:100800005DEC87F01E0E136E050E146E050E156E50
:100810000A0EA7EC87F0000E266E000E256E1E0E47
:100820002524D96E050E2620DA6E255019241C6E5B
:1008300026501A201D6E1CC5F6F41DC5F7F4000ED7
:10084000F86EDE500900F518D8B429EF84F02BEFCC
:1008500084F02DEF84F023682468254A262A26BEDA
:100860003BEF84F0265009E1050E255CD8A03BEF54
:1008700084F03DEF84F00FEF84F023C517F524C515
:1008800018F51200000E246E000E236E19C513F524
:100890001AC514F5050E156E0B0E5DEC87F01E0ED5
:1008A000136E050E146E050E156E0B0EA7EC87F079
:1008B000000E266E000E256E1E0E2524D96E050E26
:1008C0002620DA6E255019241C6E26501A201D6E23
:1008D0001CC5F6F41DC5F7F4000EF86EDE500900D5
:1008E000F518D8B476EF84F078EF84F07AEF84F0DE
:1008F00023682468254A262A26BE88EF84F02650DD
:1009000009E1050E255CD8A088EF84F08AEF84F019
:100910005CEF84F023C517F524C518F5120020EE0E
:1009200001F01850D9261950DA221AC5DFF420EE4A
:1009300002F01850D9261950DA221BC5DFF4E0EC7A
:1009400088F01AC50FF5050EC8EC88F020EE02F00D
:100950001850D9261950DA22DF500F6E110EC8EC4C
:1009600088F020EE02F01850D9261950DA22DF5014
:100970000F6E120EC8EC88F0E0EC88F018C511F587
:1009800019C512F56AEC88F018C50FF519C510F5F0
:1009900056EC89F01200020E1964D1EF84F0D3EF07
:1009A00084F0D5EF84F001EF85F01A0E136E050E7A
:1009B000146E010E156E060EA7EC87F0020E1918C4
:1009C000D8A4E5EF84F0E7EF84F0F4EF84F01A5058
:1009D00020091A6E1A50F70B1A6E1AC50FF5060E7B
:1009E000C8EC88F001EF85F01A50D70B1A6E193851
:1009F000E842F80B1A101A6E1AC50FF5060EC8EC6D
:100A000088F01200016EBF96C398C39AC39CC39E20
:100A100019EF85F0BF8630EF85F0C38830EF85F0A1
:100A2000C38A30EF85F0C38C30EF85F0C38E30EF92
:100A300085F00150000AD8B40AEF85F0010AD8B455
:100A40000DEF85F0030AD8B410EF85F0010AD8B491
:100A500013EF85F0070AD8B416EF85F030EF85F074
:100A60001200016EBE98BE96BE94BE92BE9048EF34
:100A700085F0BE885FEF85F0BE865FEF85F0BE84AF
:100A80005FEF85F0BE825FEF85F0BE805FEF85F09F
:100A90000150000AD8B439EF85F0010AD8B43CEF10
:100AA00085F0030AD8B43FEF85F0010AD8B442EFCD
:100AB00085F0070AD8B445EF85F05FEF85F01200A6
:100AC0006AEF85F0AA0EE82EFED700D0200E0D5E4C
:100AD000000E0E5A0E5007E1200E0D5CD8B073EFD9
:100AE00085F075EF85F062EF85F07BEF85F0050E00
:100AF000E82EFED700000D06D8A00E060D2806E150
:100B00000E28D8A486EF85F088EF85F077EF85F082
:100B10001200780EF66E0D0EF76E010EF86E01EEF5
:100B2000A0F110EE3CF00900F5C4EEF4E550E15000
:100B3000FAE101EE60F1400EEE6AE806FDE101EE39
:100B400029F1140EEE6AE806FDE10401080E5D6F5E
:100B5000000E5E6F000E5F6F0001F5EF86F003017F
:100B60002A912B6B2C6B030E2D6F296B0F0E286FA8
:100B70002951106E2851296E10C52AF5E20E0D6E0E
:100B8000120E0E6E010E0F6E17EC89F0000E0D6E38
:100B9000000E0E6E000E0F6E1EEC89F0B398A38847
:100BA000040E03012A6F120003011E911F6B206BBC
:100BB000030E216F1D69F00E1C6F1D51106E1C512C
:100BC0002B6E10C52CF5E40E0D6E120E0E6E010E7E
:100BD0000F6E2CEC89F0000E0D6E000E0E6E000EE6
:100BE0000F6E33EC89F0B198A188240E03011E6FBB
:100BF0001200C09C126A10EF86F00FC5F6F410C503
:100C0000F7F4000EF86E0800F550EBEC87F00F4A91
:100C1000102A000E0E6E0A0E0D6E60EC85F0122A80
:100C20001150125CD8A017EF86F019EF86F0FDEF97
:100C300085F0C08C1200B19668EC89F03250BAECA5
:100C400088F001C59CF502C59DF53250ACEC88F0EA
:100C500001C59AF502C59BF5010E3224016E026AA8
:100C6000000E0222000E046E050E036E95EC83F05A
:100C70000150326E6BEC89F01200D69AAF90D6809C
:100C8000000E0D6E000E0E6E000E0F6E4FEC89F012
:100C9000B490D682000E0D6E000E0E6E000E0F6E1A
:100CA00048EC89F0B890D684000E0D6E000E0E6EE2
:100CB000000E0F6E41EC89F01200B39829C501F5C2
:100CC0002AC502F52DEC88F00501DF51E011E11194
:100CD000D8B46DEF86F06FEF86F07CEF86F002D827
:100CE0007CEF86F00500FA6EDF51FD6EE051FE6E7E
:100CF000E151FF6EFA5012001200B1982BC501F5B8
:100D00002CC502F542EC88F00501E851E911EA1121
:100D1000D8B48DEF86F08FEF86F09CEF86F002D886
:100D20009CEF86F00500FA6EE851FD6EE951FE6E0B
:100D3000EA51FF6EFA50120012002E500301196F93
:100D40002DC518F30501EE51EF11F011D8B4ABEF3A
:100D500086F0ADEF86F0BAEF86F002D8BAEF86F0F3
:100D60000500FA6EEE51FD6EEF51FE6EF051FF6E12
:100D7000FA501200B19E1200FFFFFFFF50415F4D7D
:100D8000494E000050415F4C4F57000050415F48B2
:100D90004947480050415F4D41580000314D627055
:100DA00073000000324D6270730000003235304B2A
:100DB000627073000501FA51FB11FC11D8B4E3EF26
:100DC00086F0E5EF86F0F2EF86F002D8F2EF86F0DB
:100DD0000500FA6EFA51FD6EFB51FE6EFC51FF6E7E
:100DE000FA50120004011793120057EC88F0000E1D
:100DF0000D6E000E0E6E010E0F6E25EC89F0360E94
:100E00000D6E0C0E0E6E010E0F6E10EC89F0000EC2
:100E1000276E000E286EDAEC80F00DEF00F0C09C1B
:100E2000126A1EEF87F0FF0EEBEC87F00FC5D9F4C6
:100E300010C5DAF4DF6E0F4A102A122A1150125C24
:100E4000D8A025EF87F027EF87F013EF87F0C08C4D
:100E50001200E70E0301196F960E186F7A0E1B6FC2
:100E600019510D6E18512D6E0DC52EF5EA0E0501A6
:100E7000EE6F120EEF6F010EF06FB19EA18E900E0D
:100E800003011A6F1200B9960501E251E311E41152
:100E9000D8B44DEF87F04FEF87F05CEF87F002D8C2
:100EA0005CEF87F00500FA6EE251FD6EE351FE6ED5
:100EB000E451FF6EFA5012001200166E1550D8B4AD
:100EC00064EF87F066EF87F075EF87F0C09C1650EF
:100ED0001F0B2009EBEC87F013C50FF514C510F5B7
:100EE00015C511F5F9EC85F0C08C1200C09C610E9F
:100EF000EBEC87F015C50FF516C510F520EE02F0E6
:100F00001350D9261450DA22DF50116E0FEC87F0FF
:100F1000C08C400E0F6E070EC8EC88F0120099EFDF
:100F200087F0150E0F6EC60EE82EFED70F2EFCD7DB
:100F300000D00D06D8A00E060D2806E10E28D8A474
:100F4000A4EF87F0A6EF87F091EF87F01200166EFE
:100F50001550D8B4AEEF87F0B0EF87F0BEEF87F052
:100F6000C09C16501F0BEBEC87F013C50FF514C592
:100F700010F515C511F50FEC87F0C08C1200000EAE
:100F8000D2EC82F020EE01F00E50D9260F50DA227A
:100F9000700EDF6E20EE02F00E50D9260F50DA22CE
:100FA000200EDF6EC89CC89A12001A0E136E050E32
:100FB000146E010E156E040EA7EC87F01A500F0B7D
:100FC0001A6E1938F00B1A101A6E1AC50FF5040EA6
:100FD000C8EC88F012000D6E000187858651030968
:100FE000866F836B010E826F0DC581F0B1A0FBEFA0
:100FF00087F0FDEF87F0F6EF87F080C00EF50E501A
:101000001200030E0301326F316B336B180E2F6F1A
:101010002E6BE80E0D6E120E0E6E010E0F6E10ECA2
:1010200089F0B996A986F30E0301306F1200030E02
:101030000301266F256B276B3F0E236F226BE60E95
:101040000D6E120E0E6E010E0F6E25EC89F0B1962C
:10105000A186800E0301246F120003012AA533EF3D
:1010600088F035EF88F03DEF88F02A910250296F23
:1010700001C528F32A8141EF88F00250296F01C58C
:1010800028F3120003011EA548EF88F04AEF88F00C
:1010900052EF88F01E9102501D6F01C51CF31E8196
:1010A00056EF88F002501D6F01C51CF31200F6ECDC
:1010B00088F037EC83F029EC87F0D4EC88F0D4EC9E
:1010C00085F0AFEC85F017EC88F001EC88F03DEC92
:1010D00086F0120011C5D9F412C5DAF4DF6AC09A9D
:1010E0002B0E0F6E000EC8EC88F0C08A300E0F6E0B
:1010F000070EC8EC88F012001BC517F51CC518F5C3
:10110000000E196ECBEC84F01BC517F51CC518F545
:10111000640E196ED5EC87F01200B19602D89CEFE0
:1011200088F00500FA6E0501EB51FD6EEC51FE6E84
:10113000ED51FF6EFA5012001200E0EC88F01A6ECA
:101140001AACA5EF88F0A7EF88F0AAEF88F0010E9F
:10115000ABEF88F0000E1200036E0350020D800EFC
:10116000F324D96E050EF420DA6EDEC401F5DDC479
:1011700002F51200036E0350020D8A0EF324D96E9D
:10118000050EF420DA6EDEC401F5DDC402F51200AE
:10119000106EC09C10501F0B2009EBEC87F00F5015
:1011A000EBEC87F0C08C1200A194A192A1900001F9
:1011B000846B040E856F866B896B8C6B8785120040
:1011C000170E136E050E146E010E156E070EA7ECAA
:1011D00087F017501200040117A3F1EF88F0F3EF26
:1011E00088F0F5EF88F0DAEC86F01200600E00016E
:1011F000AD6FAF6BB36B080EB16FB06BAC6B120021
:10120000D7AE05EF89F062EF89F00301308F12004D
:10121000D7AE0DEF89F065EF89F00301249F12002E
:101220000DC5E2F50EC5E3F50FC5E4F512000DC5D9
:10123000DFF50EC5E0F50FC5E1F512000DC5DCF5D3
:101240000EC5DDF50FC5DEF512000DC5EBF50EC5BB
:10125000ECF50FC5EDF512000DC5E8F50EC5E9F585
:101260000FC5EAF512000DC5E5F50EC5E6F50FC58B
:10127000E7F512000DC5FAF50EC5FBF50FC5FCF537
:1012800012000DC5F1F50EC5F2F50FC5F3F512000C
:101290000DC5F4F50EC5F5F50FC5F6F512000DC533
:1012A000F7F50EC5F8F50FC5F9F51200C09CE20E72
:1012B000EBEC87F0C08C120003011E9112000301B9
:1012C0001A9F12000301308F12000301249F1200A5
:1012D0000301309F12000301248F1200010E3C6EA7
:0E12E000120012001200120012001200120082
:020000040030CA
:080000008FFFF7FF9FFFFFFFD8
:01000900FFF7
:00000001FF
